:020000040000FA
:10000000FC7F00200D060000FD0500000106000039
:1000100000000000000000000000000000000000E0
:1000200000000000000000000000000005060000C5
:100030000000000000000000090600004D0700005D
:1000400010B5064C2378002B07D1054B002B02D0AE
:10005000044800E000BF0123237010BD5C000020B5
:1000600000000000A818000008B5084B002B03D0C2
:100070000748084900E000BF07480368002B03D089
:10008000064B002B00D0984708BDC046000000007A
:10009000A8180000600000205800002000000000A8
:1000A000154A164B1178002909D115491878097895
:1000B0004118C9B2197080201249400008601178B7
:1000C0000131C9B211701978F02902D819780929BB
:1000D00009D80B4908784042C0B2087018780978EE
:1000E0004118C9B2197012781B789A4203D1802244
:1000F000044B52001A607047780000200100002075
:10010000000000209C44004110B5C3699C07FCD44A
:1001100003680224A3430360C46901231C42FBD18A
:100120000468234303600368DC07FCD4C46901232B
:100130001C42FBD1C469DC401C42F7D1084B1A4376
:100140000260C3695A07FCD4C0239B0243608181CB
:10015000C3699C07FCD4036802221343036010BDEB
:1001600004000040037EDA07FCD5018570470000DB
:10017000027E01235107FBD5428B1A4207D1428BE5
:10018000DA401A4203D1428B92081A4202D0034B42
:1001900001221A70008DC0B27047C046790000205D
:1001A00070B50368041C988B1A1C0821FF320842A2
:1001B00026D0802099839872112353704021144BCC
:1001C000917150715E68134DC0202E40800506432A
:1001D0005E605E693540284358610F4818600F48DB
:1001E00018615D680E4828408025AD02284358609C
:1001F0005868800B8003586000235171237105E01B
:10020000137ADA0602D5201C00F0DAFA207970BDE4
:1002100098010020FFFFFF8F9800002018010020A8
:10022000FF3F00F0002303714371044B01608360C2
:100230000B78022213430B707047C046A1010000E7
:1002400038B5364B2021DA6901200A43DA61344B94
:1002500006241A7802431A70324B0F221978914300
:1002600019701978214319702F490C7820430870B0
:1002700019780A401A701A7860210A431A702B4BB9
:100280002B4A5A805A7852B2002AFBDB294B0121B3
:100290001A780A431A709A78D107FCD42648026863
:1002A000510B1F221140914200D1052111408C01B8
:1002B0001D8D22492940214319850468A10C0A405B
:1002C0001F2A00D11D221C8D1F210A408C4322436E
:1002D0001A8502680721D20D0A408A4200D1032202
:1002E0000A40188D1103164A02400A431A851978EC
:1002F0007F220A401A701A78042112480A431A70A1
:1003000058621A890C218A431A811A8901218A4369
:100310001A810021802201F046F938BD0004004016
:10032000584400413C44004159440041000C004005
:100330000640000000500041246080003FF8FFFFAD
:10034000FF8FFFFF98010020F7B5141C1F4A5F01C3
:1003500001971D1CD319061C5869271C4000400F2B
:1003600003301033C74006D00F1C80225968120694
:100370000A435A6009E02F1C7B1E9F41144BBF01AA
:10038000FF18381C221C01F005F901990F480835A7
:1003900042181761131C5269A104920B890C920335
:1003A0000A435A6159690B4A0A405A616B01F318B2
:1003B0000222DA715979802252420A435A716B0142
:1003C000F318DB799A07FAD5201CFEBD98010020AE
:1003D00018010020FF3F00F0F8B51A4E051C3378D5
:1003E000141C002B12D1184B184A1A645A6C920B29
:1003F00092035A64586C164A02405A64A2235B0066
:10040000EA5C40200243EA54012333704827FF3757
:10041000EA5D0123134012D00B4B5A6C9204920CEC
:10042000A24202D25C6CA404A40C081C221C074942
:1004300001F0B0F80123EB550023337000E01C1CE1
:10044000201CF8BD7A00002098010020D800002070
:10045000FF3F00F0FF3083792022002900D11022D5
:100460001343837170470000084BFF305A69920BA9
:1004700092035A6102230372827980235B42134301
:100480008371037A9A07FCD57047C0469801002013
:1004900080235B421943C9B28172704770B5A023B3
:1004A00003225B00C254134B134A5C6CC0211440FE
:1004B00089050C4346255C64FF35402444550F4DA7
:1004C00030261D6490256D0046555D6B154029430F
:1004D000922559636D0080214155094D1D63B0255A
:1004E0006D0044555C6F22405A67B2235B00C154D3
:1004F00070BDC04698010020FFFFFF8FD80000208C
:1005000058010020024B5B785BB2002BFADB70478E
:10051000000C0040024BDB68DA06FBD57047C04692
:1005200000080040F8B52A4B1E2259689143022268
:1005300011435960274B28491E1C9982998A0A4306
:100540009A82F3680227234C3B42FAD0234D0123C1
:10055000AB60FFF7D7FF224B6B60FFF7D3FF82231F
:10056000DB016B80FFF7CEFFA38C80229343A38433
:10057000FFF7D0FF1B4BE362FFF7CCFFA38C1A4AB7
:100580001343A384FFF7C6FFA38C1F43A784F3681C
:100590001A06FCD50F4BDB685A06F8D50024FFF786
:1005A000B9FFAC60FFF7AEFF104B6B60FFF7AAFF1F
:1005B0000F4B104AC0215A600F4A0906106A000208
:1005C000000A0143116207229C601A60F8BDC04610
:1005D00000400041000800400C060000000C0040F4
:1005E00001050100B805FF7D040A000000070300B3
:1005F00010E000E0E703000000ED00E00EBEFEE7C3
:100600000DBEFEE705BEFEE702BEFEE70E4A0F483E
:1006100038B5824204D10E4A0E4B93420ED10AE005
:100620000D4C9442F7D00023D1188842F3D9E558F5
:1006300004330D60F8E700F011F804E09342FAD2B9
:10064000002102C3FAE7FEE7000000205C00002062
:10065000A80300205C000020AC18000038B5304B27
:100660001A681C1C013221D02E4A191D1160D9B202
:1006700000291BD12C4A1078012210402B4A0AD1A4
:1006800015682B498D4201D110600FE01160294996
:1006900001390029FCD11160226882F30888FF2209
:1006A0009343254A93601E4B5B681847FFF73AFF58
:1006B00062B600F09DFD00F04FF8204B8022520002
:1006C0001A601F4B1F4A041C5A601B4AC021106A43
:1006D00009060002000A0143116200229A60072203
:1006E0001A60A368201C9847174B002801D00122EC
:1006F0001A701A78002A05D0002000F08BFA00F05A
:1007000003FBFCE71B78002BEBD100F0E5FD002894
:10071000E7D0012000F07EFA00F0F6FAFCE7C046D0
:10072000002000001802002038040040FC7F002058
:100730003581730748E8010000ED00E0884400417E
:1007400010E000E0E70300007B00002008B5FFF7A1
:10075000A7FC00F0C3FA08BD10B5054B054C23609B
:10076000FFF76EFD201C2168FFF75CFD201C10BD0B
:10077000005000411C02002070B5051CC0B0081CD0
:10078000161C0C1C00F017FF40006A4603230230C1
:100790005370107076080123E218013A11785A005C
:1007A000002906D1281C69460023FFF7CDFD40B083
:1007B00070BDB342F6DA684681520133ECE70000BF
:1007C000F7B5BA4A04681378B949271CFF37051CE6
:1007D000102038720B705378B648B74E0370937878
:1007E0003380D178338809020B4333801179B34BBE
:1007F0001980517918880902084318809079B04906
:100800000880D2790888120202430A8040227A7155
:10081000A84F3A78A64F120238780F1C0243A94815
:100820008446181C624500D1C2E020DC80214900CA
:100830008A4200D16EE109DC812A00D192E0822A4D
:1008400000D195E0802A00D064E18BE081235B0039
:100850009A4200D1CFE000DA58E1C0239B009A42CF
:1008600000D157E1984B9A4200D14FE152E19023D9
:100870001B019A4269D015DCD023DB009A4222D0BA
:1008800088231B019A4269D0A023DB009A4200D042
:1008900040E1201CFFF7E8FD3188286889B2FFF7A6
:1008A000F7FD3BE1894B9A4200D12FE100DC31E1B9
:1008B000874B9A4200D11DE1864B9A4200D029E134
:1008C00033886B7122E133881B0A012B08D10B8816
:1008D00012222868934201D80A8892B27E4911E117
:1008E00033881B0A022B08D10B88432228689342C5
:1008F00001D80A8892B2794904E133881B0A032B94
:1009000000D007E13388DBB2012B17D0002B07D0D2
:10091000022B00D0FEE00A882868D2B2704911E0AC
:10092000042201A86F4900F035FE3B8804222868A4
:10093000934201D83A8892B201A9E3E00A88286874
:100940006949D2B2FFF718FFE8E03388201C2B7109
:10095000FFF78AFD201CFFF7A1FDDFE0291C01C97C
:100960000122CFE0614900230B8028680222CAE0FF
:100970005E4900220A801888502210405C4A10709C
:100980001E880F20304018801888032800D9C1E045
:1009900012781B8808335B01E418A379002A01D080
:1009A0009B0600E0DB06DB0F0B8028680222A9E033
:1009B00019887F2291434E4AC9B2117018880F21BD
:1009C000014019803188002900D0A3E0198800294E
:1009D00000D19FE01988032900D99BE012781B8879
:1009E00008335B01E318002A02D020225A718DE0FF
:1009F000102159718AE002887F239A433C4BD2B27E
:100A00001A7001880F220A4002803288002A00D022
:100A100080E00288002A00D17CE00288032A00D905
:100A200078E01B78002B1FD0038808335B01E318A4
:100A30009B799A066AD50388202208335B01E31864
:100A40001A71038808335B01E318DB795F065DD513
:100A50000388402208335B01E318DA71038802221D
:100A600008335B01E3181EE0038808335B01E318D9
:100A70009B79D9064AD50388102208335B01E31815
:100A80001A71038808335B01E318DB799A063DD5B8
:100A90000388202208335B01E318DA7103880122FE
:100AA00008335B01E3181A7130E0C046980000205B
:100AB0007D000020820000208400002086000020AD
:100AC000800000200203000001030000212000003C
:100AD000A121000021220000FC15000004000020DC
:100AE000EC150000DC150000E01500007E00002081
:100AF0007C0000200B8808222868934201D80A88CD
:100B000092B207490023FFF71FFC07E0201CFFF704
:100B1000ABFC03E0201C0121FFF79CFCF7BDC046A5
:100B20004800002007B5054B0122019001A9186873
:100B3000131CFFF709FC01200EBDC0461C0200205B
:100B400013B5054B6C4607341868211C0122FFF7CA
:100B500043FC207816BDC0461C02002010B5074C8F
:100B6000201CFFF71DFB031C0020834205D02268D8
:100B70004823FF33D05C0123184010BD1C02002025
:100B800010B5054A0C1C031C191C10680123221CFB
:100B9000FFF7DAFB201C10BD1C02002070B5084CCA
:100BA000061C201C0D1CFFF7FBFA0023984205D001
:100BB0002068311C2A1CFFF70FFC031C181C70BD99
:100BC0001C020020F8B50C4C051C201C0E1CFFF765
:100BD000E7FA0023271C341C98420AD0002C07D0C7
:100BE000291C221C3868FFF7F7FB241A2D18F5E79B
:100BF000331C181CF8BDC0461C02002008B5031C9D
:100C0000081C111C9847024B64221A8008BDC0467C
:100C10008C000020012805D1054B064A1A60064BBE
:100C2000187004E0002802D1044A014B1A60704792
:100C30008C02002030160000940000207C1600007A
:100C400030B50A1C1C4985B00978031C00292AD03C
:100C5000042A01D1006804E0022A01D1008800E0E2
:100C60000078520004A98B180B3B9C1AA3420BD0AE
:100C70000F210140092902D83025294300E03731EE
:100C800019700009013BF1E701A930230B707823AB
:100C90004B700A208B1898700D20D870074B0432C7
:100CA0001B68D86803E005490968C868191CFFF784
:100CB000A5FF05B030BDC046880000208C02002092
:100CC00072B6EFF30883044A1360036883F308885D
:100CD000436818477047C04690020020084B1A88A6
:100CE000002A03D01A88013A92B21A80054B1A885A
:100CF000002A03D01A88013A92B21A807047C0467F
:100D00008C0000208A000020F0B591B008A9CC4AE0
:100D10000B1C31CA31C351CA51C360CA60C3C94B2D
:100D2000C9489A687A255203520F92005258C7490F
:100D300002609C68A4B262430C60C54900240A604A
:100D4000C44A1460C44C2570C44CC54D2368281C8B
:100D50001B6940219847002802D0C24B64221A80A8
:100D6000C14B00221860C14B1D60C14BC04DBE4F2E
:100D70001A602A683B689A42E6D2BC4B1B681A7814
:100D8000FF2A00D114E2232A00D0EBE1B94E3378D8
:100D9000002B06D0B14BB8491B680222D868FFF778
:100DA0002DFFAD4B1B78532B3CD13B682A689342F7
:100DB0001ED9AE4801322A609A1AB04B01681B68EE
:100DC00001310160AE4E9A4201D2326000E03360E0
:100DD000A04832680068049000F0DCFB33682968A2
:100DE0005A182A60A14A1668F1181160A54A1370B2
:100DF0002B68013B2B609D4B1A68013A1A60A14B8E
:100E00009E4A1B7811688B420AD222689148C91AFF
:100E1000006892699047002802D0924B64221A80A1
:100E2000C0468DE1522B0AD18A48944A2368006853
:100E300011685B69039098476422934B0DE04F2B38
:100E400005D1844B8D4A1B6812681A7078E1482BD3
:100E500005D1804B894A1B6812681A8070E1572BB4
:100E600005D17C4B854A1B6812681A6068E16F2BBC
:100E700003D1784B0121186807E0682B08D1754B26
:100E80007E481B6802211B880360FFF7D9FE57E1EB
:100E9000772B06D16F4B79481B6804211B680360D0
:100EA000F3E7472B13D1754B1868FFF709FF774B12
:100EB0001B6883F3088862B6754B1B78002B00D142
:100EC0003EE1664B06201B681B68984738E1542BAF
:100ED00004D101233370614B1B6864E04E2B0CD1AD
:100EE0003378002B06D15D4B63491B680222D8681A
:100EF000FFF784FE0023337022E1562B57D123687D
:100F00006449D8680122FFF779FE23686249D868EE
:100F10000322FFF773FE614D2368291CD868012264
:100F2000FFF76CFE23685E49D8680D22FFF766FE66
:100F30002368291CD8680122FFF760FE4B4F4C4DF7
:100F40005849002339602B603A1C281C13685E1C2A
:100F500016601B780593002B03D0036801330360F0
:100F6000F4E73E4E2A683368D868FFF747FE3368D7
:100F70004A49D8680122FFF741FE059929604A498C
:100F800039603A4A1368581C10601B78002B04D053
:100F9000374B1A6801321A60F3E733682A68D86859
:100FA000FFF72CFE3368D86833490222C6E0334A83
:100FB000582B17D1244E264D366813682A68B10085
:100FC00093420AD21F4D5808E861384828801D4DC9
:100FD000287DC607FBD55B18F2E7204B34491B6818
:100FE000D868AAE0592B79D112681A4B3149002AE6
:100FF00002D11B680B606CE0124D086819686B68C1
:10100000104E8025AB4392087360002A61D02A4BB2
:101010000C4D2B800B4E337DDD07FBD500230A4D95
:101020002D680195AD08AB4203D3244D054E3580A4
:1010300046E09342F9D09D00465901334E51EEE708
:101040001016000000400041440200203C02002035
:101050003802002088020020340200208C02002088
:10106000480200208A0000202C02002030020020CC
:10107000400200208800002070160000940200202A
:1010800098020020280200208C00002090020020FE
:10109000940000204C160000751600004E1600004B
:1010A00098160000501600005C16000002A5FFFF15
:1010B000651600009000002044A5FFFF04A5FFFF77
:1010C0003F4E357DEE07FBD59D0049194019D21AD8
:1010D0009BE73C4B3C491B68D8682EE05A2B2FD12C
:1010E0003A4B17681D680026EF19BD4206D02878D4
:1010F000311C00F013F90135061CF6E7314B344979
:101100001B680122D868FFF779FD07230F223240C0
:10111000111C36093031092A00DD07311820C018AA
:101120006A468154013BF1D2236806A9D868082297
:10113000FFF764FD23682749D8680322FFF75EFDA7
:10114000254B7A221A70254B00221A60244B1B78FB
:1011500093422DD01B4B23491B680122D868FFF70F
:101160004DFD25E0111C3039C8B21C4B092804D8AC
:101170001D682A01114319601AE0111C4139052923
:1011800003D81E68373A310106E0111C6139052980
:1011900004D81868573A01010A4308E02C2A03D101
:1011A0000A4A1968116001E00B490A7000221A60AE
:1011B0000D4B1A6801321A600C4B1A680132D5E5E2
:1011C000004000418C0200206916000088020020C7
:1011D0006D1600006F1600003402002094020020FB
:1011E000880000207316000040020020300200201A
:1011F00010B51C4B01201A78032402431A701A4BB5
:101200000F221978914319701978214319701749E1
:101210000C782043087019780A401A701A78302127
:101220000A431A70124B80211A6A0A431A62114B40
:10123000114A5A805A7852B2002AFBDBC4220F4866
:101240000F499203FEF760FF0E4A002313700E4A07
:1012500013700E4A13700E4A13700E4A13700E4A22
:10126000137010BDD6440041BB440041D744004137
:1012700000040040000C004019400000001C004227
:101280002AF600009C020020230300209D0200207B
:10129000A0020020240300202103002008B5C1B2D1
:1012A0000248FEF75FFF012008BDC046001C004257
:1012B000024B187E4007C00F7047C046001C00421A
:1012C00008B5FFF7F5FF0028FBD00248FEF750FFF6
:1012D00008BDC046001C004208B5FFF7E9FF002327
:1012E000984205D0FFF7ECFF031C233B5A425341C1
:1012F000181C08BD70B5041C0D1C4618B44204D05F
:101300002078FFF7CBFF0134F8E7281C70BD10B53B
:10131000041CFFF7D5FF2070012010BD0B0A5840B8
:10132000034B4000C05A0902484080B27047C04693
:10133000A6160000F7B50024051C0F1C261CBC4295
:1013400020D0FFF7BDFF114BC0B21B780190002BDE
:101350001AD1311CFFF7E2FF0D4B061C1A88002A38
:1013600004D10C4A11782A1C002907D001996A1C63
:101370002970802F02D11988013919800134A4B253
:10138000151CDCE7301C00E00120FEBD210300201D
:101390009E02002022030020F0B53E4E85B00022C0
:1013A00003900C1C32703C4B914201D1012201E0B0
:1013B0003A490C801A707F231C4201D080349C4330
:1013C000FFF77EFF3378C0B2002B07D000253570C1
:1013D000FFF776FF3378C0B2AB4236D1432803D053
:1013E000712853D01528EBD1012300930120FFF77A
:1013F00055FF0098FFF752FF00998025C843C0B2FF
:10140000FFF74CFF039B00270293244A1388002B0D
:101410001DD1214901930978002918D10198FFF7BE
:101420003DFF391C0198FFF779FF013D071C002D96
:10143000EBD1000AC0B2FFF731FFF8B2FFF72EFF81
:10144000FFF73EFF3378002B0AD035701FE002997A
:10145000013B09781380029B019101330293DDE780
:10146000C0B2062807D1009B03990133DBB280315B
:101470000093803C0391002CB8D10420FFF70EFFAD
:10148000FFF71EFF044B01251C7000E00025281CFF
:1014900005B0F0BD21030020220300209E020020A1
:1014A000F0B5384C87B0002301902370994201D1E8
:1014B000012301E0344A1180344A6426137043202A
:1014C000FFF7ECFE324FFFF7F3FE002803D1002FA9
:1014D00003D0013FF7E7002F03D1013E002EEED1EC
:1014E0004DE00125FFF7ECFE2378002B38D1C0B288
:1014F0000290012805D004283DD10620FFF7CEFE3A
:1015000039E005AE0221301CFFF714FF019880215D
:10151000FFF710FF23780390002B18D1FFF7D0FEC0
:101520000702FFF7CDFEBFB223783F18BFB2012BF1
:101530000DD0039B9F4207D13378AB4204D1EB43DC
:101540007278DBB29A4204D01820FFF7A7FE00237E
:1015500003E00620FFF7A2FE029B2278002A02D0B9
:10156000002626700BE0012B05D1019A6B1C8032FE
:10157000DDB20192B6E7054A002313700126301C44
:1015800007B0F0BD210300209E02002022030020AE
:1015900000350C0010B50023934203D0CC5CC4543A
:1015A0000133F9E710BD031C8218934202D0197071
:1015B0000133FAE770470023C25C0133002AFBD1F4
:1015C000581E7047F8B5C046F8BC08BC9E46704728
:1015D000F8B5C046F8BC08BC9E4670470403090431
:1015E00041726475696E6F204C4C430041726475A2
:1015F000696E6F204D4B525A65726F0012010002E6
:101600000200004041234F000002010200010000DF
:101610000800000010000000200000004000000052
:101620008000000000010000000200000004000033
:101630009D120000C1120000B1120000F51200005E
:101640000F13000099130000A11400007600200081
:1016500041707220313120323031390031333A302B
:10166000393A353300580A0D00590A0D005A002343
:101670000A0D003E00322E3000000000250B000055
:10168000410B00005D0B0000810B00009D0B000072
:10169000810B0000C50B00005B41726475696E6FC1
:1016A0003A58595A5D0000002110422063308440AE
:1016B000A550C660E770088129914AA16BB18CC121
:1016C000ADD1CEE1EFF13112100273325222B55298
:1016D0009442F772D662399318837BB35AA3BDD371
:1016E0009CC3FFF3DEE36224433420040114E66468
:1016F000C774A44485546AA54BB528850995EEE5C1
:10170000CFF5ACC58DD55336722611163006D77677
:10171000F6669556B4465BB77AA719973887DFF710
:10172000FEE79DD7BCC7C448E5588668A77840083F
:10173000611802282338CCC9EDD98EE9AFF9488960
:1017400069990AA92BB9F55AD44AB77A966A711AD7
:10175000500A333A122AFDDBDCCBBFFB9EEB799BB0
:10176000588B3BBB1AABA66C877CE44CC55C222C27
:10177000033C600C411CAEED8FFDECCDCDDD2AAD00
:101780000BBD688D499D977EB66ED55EF44E133EB7
:10179000322E511E700E9FFFBEEFDDDFFCCF1BBF50
:1017A0003AAF599F788F8891A981CAB1EBA10CD12A
:1017B0002DC14EF16FE18010A100C230E320045032
:1017C000254046706760B9839893FBA3DAB33DC3A5
:1017D0001CD37FE35EF3B1029012F322D232354282
:1017E000145277625672EAB5CBA5A89589856EF535
:1017F0004FE52CD50DC5E234C324A01481046674D2
:10180000476424540544DBA7FAB79987B8975FE784
:101810007EF71DC73CD7D326F2369106B016576621
:101820007676154634564CD96DC90EF92FE9C8990C
:10183000E9898AB9ABA94458654806782768C01871
:10184000E1088238A3287DCB5CDB3FEB1EFBF98BE4
:10185000D89BBBAB9ABB754A545A376A167AF10AC1
:10186000D01AB32A923A2EFD0FED6CDD4DCDAABDF4
:101870008BADE89DC98D267C076C645C454CA23C11
:10188000832CE01CC10C1FEF3EFF5DCF7CDF9BAFC4
:10189000BABFD98FF89F176E367E554E745E932E61
:1018A000B23ED10EF01E0000000000000114000046
:1018B0000902430002010080320904000001020213
:1018C0000000052400100104240200052406000184
:1018D0000524010001070583030800FF0904010036
:1018E000020A00000007058102400000070502020D
:1018F0004000000000C20100000008006900000074
:0819000041000000000000009E
:1020000000800020B13300009933000099330000B4
:1020100000000000000000000000000000000000C0
:1020200000000000000000000000000099330000E4
:10203000000000000000000099330000053400009B
:102040009933000099330000993300009933000060
:102050009933000099330000993300009D3300004C
:102060009933000099330000993300009933000040
:1020700099330000993300000933000099330000C0
:102080009933000099330000993300009933000020
:10209000000000009933000099330000FD24000087
:1020A0009933000099330000993300009933000000
:1020B0000000000010B5064C2378002B07D1054B1B
:1020C000002B02D0044800E000BF0123237010BDA4
:1020D000B00000200000000044630000044B10B575
:1020E000002B03D00349044800E000BF10BDC046E8
:1020F00000000000B40000204463000043680B703F
:1021000043681B0A4B7043681B0C8B7043681B0EA3
:10211000CB7083680B7183681B0A4B7183681B0C3F
:102120008B71836808201B0ECB7170470A78426060
:102130004B781B021A4342608B781B0413434360A5
:10214000CA781206134343600A7982604B791B02F6
:102150001A4382608B791B0413438360CA79120689
:10216000134383600820704700487047295E0000D1
:1021700000487047085E0000004870476B5D000033
:10218000004870474A5D000000487047375D000016
:1021900000487047165D000000487047845D0000ED
:1021A00000487047F55C0000037901200B70704710
:1021B0000B7803710120704700487047585E00009B
:1021C00000487047375E0000037901200B707047AC
:1021D0000B7803710120704700487047FA5D0000DA
:1021E00000487047D95D00000123064A1370064A73
:1021F00013700279054B1A60054A93681B03FCD4DF
:102200007047C046D9070020B80700207020004260
:10221000002000429F23DB00C05C7047030010B524
:102220000A780C3002715B69984710BD806970476D
:1022300000487047FA5D000000487047D95D000013
:10224000030010B50A780C3002715B69984710BD25
:102250008069704700487047585E0000004870472A
:10226000375E0000012210B501790400114000D052
:102270001100032001F0FEFA2279044B920702D5E7
:1022800000221A7010BD0122FBE7C046B8070020EB
:10229000074B10B51A78002A01D101321A70017962
:1022A000002900D00121022001F0E4FA10BDC0464F
:1022B000D80700207FB504000E00632905DD9F23A9
:1022C0000025DB00C35CAB4239D0136825491B688D
:1022D0006118100098478723234A9B00E252234A43
:1022E000C3B2A35422490212D2B262549B1888226C
:1022F000DB439200A3541F4B0522E6541E4B36B21B
:102300003612E6540023851D954206DB872189009D
:102310005118615C01325B18F6E7DB43114A050096
:10232000201880180370802308359B009D4209DC2B
:1023300060681C33E11803682A005B68984728002E
:1023400004B070BD0D4B01250193032301AA137145
:102350000B4B07219360236820001B6898476D4250
:10236000EDE7C04623020000FFFEFFFF1E02000053
:102370001F0200002102000022020000105C000089
:10238000A05D0000012110B5122001F0B7FAE02392
:102390001F201B4A5B00D15C1A4B01401A69824323
:1023A0000A431A615A7ED209FCD1998804320A4341
:1023B0009A805A7ED209FCD1197802320A431A70E7
:1023C0005A7ED209FCD1197E01320A431A765A7E0E
:1023D000D209FCD1197B02320A431A735A7ED20900
:1023E000FCD11A7ED207FCD50122197E1143197641
:1023F000D97D0A43DA758022034B12041A6010BD9E
:10240000A85E00000040004200E100E00622074B09
:10241000FF321A60064A11005378DB09FCD1054BE4
:10242000054A1A604B78DB09FCD17047080C004064
:10243000000C0040040C004005060300034A044B56
:102440001A80044A5378DB09FCD170471A45000012
:10245000020C0040000C004002221B4970B50B68C2
:1024600013430B60FF21194B1960194B19680A437C
:102470001A609A689207FCD49A685206F9D499684F
:102480000906C90FF5D1134C002225006035AA5664
:10249000606ED2018218104812180120167830435D
:1024A00010700020626E28565208C00112180B48A6
:1024B00012180520147820431070094A11609A6898
:1024C0001203FCD470BDC0463C20004240200042B4
:1024D00000200042A85E000040440041304400411A
:1024E00070200042034B044A186093681B03FCD41D
:1024F0007047C04670200042002000420122044B79
:10250000197E0A431A765A8B024B1A807047C046CE
:1025100000400042600200200B0A017043700B0C67
:10252000090E8370C17070474368F7B50B7043683C
:102530000E001B0A4B70436804001B0C8B70436831
:102540001B0ECB700B1D0021DA1C944662688D1C9B
:102550005F1C981CAD008A420DD9E2680131551903
:10256000083D2A68100A1A705870100C120E9870E4
:10257000DA700433E8E7226900211A7062462369A1
:102580001B0A3B7023691B0C037023691B0E13701D
:102590007319DA1C944622695F1C981C04358A4220
:1025A0000CD9A0698A0012580131100A1A705870AB
:1025B000100C120E9870DA700433EAE7E2691A70B0
:1025C000E36962461B0A3B700027E3691B0C03703A
:1025D000E3691B0E1370E369BB4215D9636ABA0045
:1025E000985803F0A7FA019001997019FFF794FF2A
:1025F000636ABA00043599587019019A03F0C4F956
:10260000019B0137ED18E6E72800FEBD70B50379A0
:1026100006000B7080680D0003F08CFA0400681C43
:102620002100FFF779FF681DB168220003F0ACF9C3
:10263000601D70BDF8B5838806000B7083880D009F
:102640001B0A4B70806803F075FA0400A81C210077
:10265000FFF762FF2200B168A81D03F095F9F0684A
:1026600003F068FA0700A31DE81839000A34FFF7E1
:1026700053FF3A00F168281903F086F9306903F036
:1026800059FAE4190700281939000434FFF744FF08
:102690003A002819316903F077F97369E4192B5569
:1026A0001A0A2D196A701A0C1B0EAA70EB70201DE5
:1026B000F8BD002310B50360CA5CDC00A2400468CA
:1026C000013322430260042BF6D110BDF7B50C0094
:1026D0000B7805000371013101A8FFF7EAFF221D05
:1026E00013000199481D01331E1BB04203D91F7806
:1026F0005E1E3770F7E7002364182371AA60FEBDE1
:10270000F0B50C000B7885B083804A780600120281
:1027100013438380023101A8FFF7CBFF611D0B003B
:10272000019A951D0133181B854203D91F78581E45
:102730000770F7E70023A218537102A8B16061196E
:10274000FFF7B7FF029A2B1D9D181A00954204D976
:10275000A05C511E60540132F8E700206119013B72
:10276000E3184A1E1070F36003A8FFF7A2FF039B53
:102770000435E8182B00984204D9E15C5A1EA15494
:102780000133F8E700212218013D531E6519197025
:102790003561537891781B020904D2780B43215C90
:1027A00012060B4313430430736105B0F0BDF0B55E
:1027B0004B780D781B022B438D7887B02D042B436B
:1027C000CD7804002D061D4343680E00AB4204D2B1
:1027D000A900C06803F092F9E06000236560371D2E
:1027E0000193BA787B7812041B0213433A7813439F
:1027F000FA780437120613430293019B019A981C3E
:10280000830003931D00636893420DD928002100C3
:10281000029B0838A360E36804221818083103F00B
:10282000B3F8019B0133DBE72369029A934204D298
:102830009100A06903F062F9A061029B2361039BF0
:10284000F71800230193BA787B7812041B02134314
:102850003A7804351343FA78043712061343029387
:10286000019A236993420CD92100029B9000636175
:10287000A36904221818143103F086F8019B013370
:10288000E0E7E369029A934204D29100606A03F0A0
:1028900035F960620027029BE361E369BB421FD9FF
:1028A000711905A8FFF705FF059A2B1D9D181A0041
:1028B000954204D9B05C511E70540132F8E70021F2
:1028C0007219013A11702100013BF3182362636A07
:1028D000B80018180422203103F056F80137DCE75D
:1028E000280007B0F0BD9023DB00C218002310B50C
:1028F0001468002C08D11A002132FF3292001150C6
:10290000012064334B6010BD01330432192BEFD129
:102910000020F8E71FB5074B01AA0193002302939B
:10292000039303680A211B680400984700F078FDB0
:10293000E0601FBDE05B00000022F0B580270500CD
:102940002B4B89B0029302AB9A802A4B07920493D7
:1029500005930693284BBF00C4186433C618236838
:10296000002B17D09A68586802A98A801A680368F1
:1029700004929B6898472368059058680368DB6851
:10298000984721682B68069007971B6802AA096977
:10299000280098470434B442E1D18026174BB60092
:1029A000EB1801932068002818D0436802AA93808E
:1029B0008368049303689B689847059020680368C0
:1029C000DB6898472B68069020681F6803680796A5
:1029D0005B68984702AA01002800B847019B0434AD
:1029E000A342DFD19F230122DB00EA5409B0F0BDEE
:1029F000F85B0000D85D00001C040000E404000047
:102A0000F0B5244B87B00393002304000E00049319
:102A1000059300F005FDE3683100C51A03A8FFF730
:102A200085FBFA212800890002F0F2FDFA21049BBF
:102A30008900181804902800019302F06FFE164ECA
:102A4000059B7143C9180193059100F0E9FCFA2137
:102A5000049B8900070001935D1E02F0D9FDFA2155
:102A60002D1A0E4B2561059D38008900ED1802F0E6
:102A700055FE20004E432100AE1B1431666110301C
:102A800000F0B6FA00F0CCFCA023DB00E05007B069
:102A9000F0BDC046E05B000040420F0000CA9A3B18
:102AA000F8B5040000F0BCFCA023DB00E358774A33
:102AB0000700C31A934203D99F230022DB00E2548C
:102AC000734D6359002B05D0724BE358BB4201D2C2
:102AD00000236351A369002B17D1606803685B6909
:102AE0009847002819DA9F230025DB00E35CAB42FE
:102AF00009D0694E694AA359FB1A934203D92000B1
:102B0000FFF708FFA7512800F8BD00F089FCA36972
:102B1000C01B9842E1D902258FE0614AA358C3182F
:102B2000A3506659072E0DD1043AA358591CE31837
:102B3000A1501877083AA358013BA350002BC9D1E4
:102B40000823C6E7002E12D1FF2806D101236351C6
:102B50003B00504A1433A350BCE700F061FC514BDA
:102B6000C01B9842B6D99F23DB00E654D3E7012E61
:102B70000ED1FE2801D10223ABE7002363519F232E
:102B8000DB00E35C002BA5D12000FFF7C3FEA1E72B
:102B9000022E09D19D230021DB00E0500833E150D3
:102BA00003236351A05095E7032E07D19D23DB003B
:102BB000E25800021018E05004238AE7042E0BD1DB
:102BC000394A134003D5394A013B13430133FF2BE4
:102BD00000D07DE7FA3B7CE7052E03D1344BE05073
:102BE0000623DEE7062E0AD1314B0002E258101808
:102BF000E050072363519D23DB00E3589EE7082E36
:102C000000D067E700226251274A134003D5274AC4
:102C1000013B13430133FF2B00D05BE7244BE35808
:102C2000002B0CD101252000FFF774FE2000FFF7D8
:102C300083FE194BE7500433E7506D4263E70A2BDC
:102C400005D1210020001C31FFF7DAFE42E7062BF8
:102C50000AD12100174B1C31E018FFF7A8FD012312
:102C6000A122D200A35435E70B2B02D100239F22CF
:102C7000F7E7BC339B001859002800D12AE7210050
:102C800003681C311B68984724E7C046F82A0000F7
:102C9000E404000004050000FC040000C409000076
:102CA000F404000088130000FF00008000FFFFFF15
:102CB000EC0400000C05000070B52F4C2000FFF75D
:102CC000EFFE2E4B1978002922D12D4A2D4D136885
:102CD0002D4E2D8898008551632B44DC0133136001
:102CE00000212A4D28688B00F3580131C01864294F
:102CF000F9D102F017FD28602000FFF7D1FE2B6804
:102D0000FF2B01DDFF232B602868C0B2FFF7EAFB31
:102D10002000FFF7C5FE1E4D2B78002B1ED114207E
:102D200000F0D4FD411E88411A4EC1B2022031701C
:102D300000F0A0FD3178032000F09CFD3378002BDB
:102D40000CD10B2000F0C2FD061E0ED00121022086
:102D500000F090FD0121032000F08CFD9F23DB009B
:102D6000E35C2B7070BD1160BAE70100022000F037
:102D700081FD3100EFE7C04684020020B807002043
:102D8000CC00002060020020D00000208002002043
:102D9000D9070020DA07002070B53E4B3E4C802654
:102DA00023603E4B00256360E12320001B02B60038
:102DB0002900A36032001C30E56025616561A561D2
:102DC00002F0EBFD87239B002900E018320002F09F
:102DD000E4FD9D3E324BFF3E32002900E01802F038
:102DE000DCFD9023DB0032002900E01802F0D5FD65
:102DF0002C4B2D4AE5500433E5502C4B2C48E55024
:102E00000433E5502B4B2C49E5500433E5542B4B50
:102E1000E5500433E5502A4BE5500433E554294B83
:102E2000E25000220433E550274BE5500433E550CF
:102E3000264BE5500433E250254B264AE550043337
:102E4000E550254BE5500433E550244B244C5A61A2
:102E500001221D741860D9609A619C60214B224C3C
:102E60001D741C60214C9A61DC60214C5C61214C1A
:102E70009C60214BD9609A612049214A1D741860D9
:102E8000142059619A6000F021FD431E98411D4BAA
:102E9000187070BD705C00008402002024090020BE
:102EA0001C040000E4040000285C0000EC040000A6
:102EB000845C0000F4040000405C0000FC0400009E
:102EC000040500000C050000140500001C050000AE
:102ED00024050000E92100002C050000BC070020AB
:102EE000AC5C0000DC0700209C5C0000585C00002B
:102EF00091220000C25C00006402002065220000F4
:102F0000DC5C0000DA07002070B500252D4C2E4B4C
:102F10002E48A36000F0BAFAA168606801F0E2F8F8
:102F20002B4B2C49E5500433E5500833E5502A4B30
:102F30002000E550FFF7D7FC28492000FFF7D3FC1D
:102F400027492000FFF7CFFC01211D2000F046FC9F
:102F50000121022000F042FC0121042000F03EFC8F
:102F60000121032000F03AFC2900142000F036FC77
:102F700029000B2000F032FC0121102000F02EFC73
:102F80000121062000F02AFC142000F09FFC010023
:102F9000022000F06FFCFFF739FAFFF74FFAFFF756
:102FA0005BFAFFF7EFF90F4800F01EF901211D2031
:102FB00000F060FC082000F0B9FB0B4B1D700B4BC0
:102FC0001D7070BD8402002090D00300B80B00007B
:102FD000E4040000BC070020EC04000064020020B0
:102FE000DC070020F8070020D9070020B8070020E0
:102FF00070B50D6806000C002800064902F008FBB9
:103000003368044918183060280002F087FB2160FB
:1030100070BDC04600CA9A3B70B506000C008D1802
:10302000AC4207D0336821789B6830009847207005
:103030000134F5E770BD7047704710B50400406873
:1030400000F0A8FD0023237610BD10B5406800F005
:10305000C6FD10BDF8B5050040680C0000F0BAFDD3
:103060002B68E7B2260A9B68012810D13900280096
:10307000FF2798472B68BC4304439B683100280016
:103080009847030220003840184380B2F8BD310051
:1030900028009847FF262B680002344004439B68B1
:1030A000390028009847B4432043EEE710B50400E8
:1030B00002F098FA200010BD10B54B1C0BD010295F
:1030C00009D0EFF3108472B6102905DD0223437690
:1030D000002C00D162B610BD0123427E1A43427615
:1030E00018224A430449891816228A569340C26915
:1030F0001343C361ECE7C046A85E00004B1C17D029
:10310000102915D0437E9B0712D4EFF3108272B6BC
:1031100018234B430749C9180123897D49B28B40C5
:10312000C1699943C16100D14176002A00D162B6DC
:103130007047C046A85E0000437E002B05D09A076A
:1031400004D5837E002B00D062B67047DB07FCD528
:10315000C369024A9BB2D360F7E7C046001800403B
:10316000037E002B04D143768376C361013303765B
:10317000704700007FB5036902AE04000D000291A4
:1031800072608B4203D1828AB3889A4226D0200093
:1031900006223100103002F0F7FB606800F011FDEC
:1031A0007379E17A013B581E8341227B009360686A
:1031B000002300F0ABFD33790021013BDBB2022B91
:1031C00001D8074AD15C074B2A009D4200D91A005A
:1031D000606800F0C7FC606800F0E9FC7FBDC04695
:1031E000675E000000366E0170B518260400FFF718
:1031F000B7FF33000821207A0D4D4343EB18595691
:1032000000F07CFB33000821A07A4343EB185956A9
:1032100000F074FB0821607A4643AD19695600F04E
:103220006DFB044B200006CBFFF7A4FF70BDC0462A
:10323000A85E00003808002007B5437E0091019287
:10324000002B07D09A070AD5EFF310835A42534157
:10325000837672B60099019AFFF78CFF07BDDB07F2
:10326000F8D5C369014A9BB29360F3E700180040A8
:10327000F7B500240125194B194A5D711A601C71BC
:10328000184B1948083301930360184B184F4360DB
:10329000184B194E038109233A003100457504612A
:1032A00004758372063B0476C472037302F09EF9C0
:1032B0001248134B019A4360124B457503811B233F
:1032C0003100026004613A0004758372183B047691
:1032D000C472037302F08AF9F7BDC04638080020B3
:1032E00000093D006C5E0000F8070020080900207E
:1032F000000000200A0800003930000018080020F3
:10330000140900201D1A000010B5024801F0FEFF4C
:1033100010BDC0464008002013B51249124800F005
:103320009BFB1249124800F097FB1249124800F02B
:1033300093FB1249124800F08FFB1249124800F02B
:103340008BFB124C1249200000F086FB01230193F5
:10335000023300930D220B3321000E4801F062FF6F
:1033600013BDC0460008004204090020000C0042C2
:1033700008090020001000420C090020001400423F
:10338000100900200018004214090020180900202C
:10339000001C004240080020FEE70000034B10B56F
:1033A0001B68002B00D0984710BDC0461C090020A8
:1033B00070B50F490F4CA14204D100F08FF802F014
:1033C000EDF8FEE70C4D00238D42F6D0CA18E81840
:1033D000A24205D3094B8242EFD00949002204E002
:1033E000006804331060F1E704C38B42FCD3E4E7C8
:1033F00000000020B000002048630000B000002062
:103400005C0F002010B500F066F8002801D100F034
:1034100057F810BD014B18607047C0461C090020CA
:10342000014B18687047C04620090020F7B51348C3
:10343000012284461249134C8E68636805689B0E0E
:103440001340019288686268019F920E3A40674675
:103450003F6893420ED1BD420CD186420AD35B191C
:10346000FA254868AD00861B07486B437043000D82
:10347000C018FEBD3D0013000600E3E72009002050
:1034800010E000E000ED00E05555000070B5041EAE
:1034900010D0FFF7CBFF050000F01CF8FFF7C6FFC8
:1034A000054B401B9842F7D9FA23013C9B00ED18CD
:1034B000002CF3D170BDC046E70300007047000048
:1034C00010B5034A13680133136000F089FA10BD88
:1034D0002009002070470020704700001E2270B5B0
:1034E00046484749436893431C3A134343600823C3
:1034F0008C6923438B61434C434B9C829C8A1443CD
:103500009C82DC681442FCD00124404A1470157877
:10351000254203D055786DB2002DF8DB012494606C
:10352000547864B2002CFBDB394C5460547864B29C
:10353000002CFBDB8224E4015480547864B2002C1C
:10354000FBDB02249C840E34DD682542FCD0314C28
:10355000DC621024DD682542FCD09D8C2E4C2C436F
:103560009C841024DD682542FCD002249D8C80269A
:103570002C439C844024DD683542FCD0DD68254224
:10358000F9D01024DD682542FCD0002494605478E2
:1035900064B2002CFBDB214C5460547864B2002CE4
:1035A000FBDB1C6A1E4D2C4080251C621C6AAC4350
:1035B0001C62032393601B4B536053785BB2002B58
:1035C000FBDB0023FF240B72174A4B728B72CB720A
:1035D000164B1A60164B174A1B6811689A065B0156
:1035E000C90E2340520F12020B431343124A138594
:1035F000802342681343436070BDC04600400041D1
:10360000000400400C06000000080040000C0040D0
:1036100001050100B905FF7D040A00000007030051
:10362000FFFCFFFF03060100006CDC020400002029
:10363000246080002060800000400042FA21314B6D
:1036400010B51868890001F0E3FF2F4B013898424C
:1036500056D82E492E4A4860C020136A00061B0225
:103660001B0A03431362002407238C600B60802134
:10367000136A09061B021B0A0B431362FC22254B2B
:10368000196A0A431A62FC22196A92010A431A62F1
:10369000A022196AD2020A431A62E0B20021013460
:1036A00000F09CF80F2CF8D11B4B1C005A7852B23A
:1036B000002AFBDB194A5A80194B1A00597EC909A6
:1036C0000129FBD0E421C90099803F21D970537EA4
:1036D000DB09012BFBD0C02300205B01136190703C
:1036E00000F04AF863785BB2002BFBDB0D4B0E4A0F
:1036F0006380D379DB09012BFBD04123537010BDCC
:10370000FEE7C04604000020FFFFFF0010E000E0DD
:1037100000ED00E000040040000C00401E400000EE
:103720000040004221400000004800420F4B302280
:1037300018600F490F4B0A2809DD9888904398803C
:10374000243A0A605A7ED209012AFBD07047082821
:1037500006DD98889043202202439A800A22F0E7EF
:10376000988802439A800822EBE7C0460C000020AC
:103770000800002000400042164A00B51300517EA8
:10378000C9090129FBD00138042816D81969124A41
:103790000A400F211A615A788A4301F02FFF03086B
:1037A000060B0300110001220A435A7000BD1100EC
:1037B0000322F9E711000222F6E7F02311691B0545
:1037C0000B430F21136153788B43190002230B43E2
:1037D0005370EBE700400042FFFFFFF0182330B5C5
:1037E0001D00040045430820204A55192856013081
:1037F00014D0032912D808006343D156D31801F01E
:10380000FDFE02280E1B5868CB010221184A9B18A6
:103810001A1840321170012282405A6030BD586837
:10382000CB010621124A9B181A184032117001224E
:1038300082405A609A61F1E75868CB0106210C4A30
:103840009B181A1840321170012282405A605A6146
:10385000E4E75868CB010221054A9B181A18403248
:103860001170012282409A60D8E7C046A85E00002D
:10387000004400411823F0B508245843114A131896
:103880001C5701341BD0012635005F688356BD40AC
:103890000D4ADB019A18906805420BD10C00601E9E
:1038A0008441D2194032107834400336A400B0432A
:1038B00020431070044A9B18002901D15D61F0BDBE
:1038C0009D61FCE7A85E000000440041182310B58C
:1038D0000824434307490020CA181457013408D06C
:1038E0005B560549DB015B18186A5368D840012311
:1038F000184010BDA85E0000004400411822424359
:10390000F8B52C4E0300B218127A52B214000132EC
:103910000ED0481C00240C280AD801F06FFE0720A6
:10392000202020202020200B0B0B0B0001246442C0
:103930002000F8BD092905D10021D8B2FFF74EFFBC
:103940000024F5E70A2902D1D8B20839F6E70024A5
:103950000B29EDD1D8B20A39FFF740FFE8E718206C
:103960004343F2185568F3562C00134ADB016E08E6
:1039700017389B18C9B204409E19002C0DD00F2493
:1039800030363278090122401143C9B25B193170D7
:1039900040331A7810431870D2E732000F273032C4
:1039A00016785B19BE433143117040331A781043C7
:1039B0001870BDE7A85E00000044004110B5040087
:1039C000FFF77CFD014B1C6010BDC04610000020BD
:1039D0000122024B52421A607047C046100000207C
:1039E000164A10B51368591C26D0013B1360002BF2
:1039F00022D172B6124B134A0433934213D9124A9E
:103A000001211000147D0C42FCD02021148BFF31C9
:103A10009B085B0021431183D3610C4B138001236E
:103A2000027D1A42FCD0BFF34F8F094B094ADA607E
:103A3000BFF34F8FC046FDE710BDC0461000002009
:103A400000200000030200000040004102A5FFFF2B
:103A500000ED00E00400FA05016070479446F0B5FF
:103A60009E1E721E96416246056892072F683606B2
:103A70003A4332432A60072505AC24780068A40144
:103A80002940214342680024022B00D05C031143EB
:103A900021434160F0BD30B5C0250368AD031C680B
:103AA00012052A402243C0240904A40221401143E4
:103AB000196003685A6814435C6030BD01230268D2
:103AC00011680B43136003681A68D207FCD4DA69E3
:103AD000D207F9D470470223026811680B431360C0
:103AE0000268D3699B07FCD470470268137E9B076A
:103AF000FCD57047002203685A8370470368187E1C
:103B00004007C00F70470368187EC00970478023C4
:103B100002685B42117E0B43137670470368588B33
:103B20008007C00F704702230268518B0B435383F9
:103B300070470368187EC007C00F70470368188D70
:103B4000C0B2704703681A7ED207FCD589B2012043
:103B500019857047012203689A757047012203682E
:103B60001A75704770B5012604684B083340314020
:103B7000256809075B070B432B432360046851004A
:103B8000034801F045FD0138C0B2207370BDC04646
:103B9000006CDC020123026811680B4313600368A8
:103BA0001A68D207FCD4DA69D207F9D47047022325
:103BB000026811680B4313600268D3699B07FCD449
:103BC00070470368DA699207FCD402211A688A43B5
:103BD0001A607047036818684000C00F7047026899
:103BE000936A5B0A5B021943916203681A7E52076B
:103BF000FCD5986AC0B270470368214A30B5934239
:103C00002FD0204A93422FD01F4A93422FD01F4AD1
:103C100093422FD01E4A93422FD01E4A93421FD167
:103C20000E2319220121032599401B48C02401605D
:103C300099082B40AB40FC359D4089000918A40031
:103C40000859A843C0259D402B0003430B518023F6
:103C5000DB011A43114B5A805A7852B2002AFBDB1F
:103C600030BD09231422DDE70A231522DAE70B23EE
:103C70001622D7E70C231722D4E70D231822D1E709
:103C800000080042000C00420010004200140042F4
:103C900000180042001C004200E100E0000C00405F
:103CA000F8B504000F0016001D00FFF7A5FF200067
:103CB000FFF704FF1C21BB000B4071072268090CB1
:103CC0000B431360842322689375012F1AD11021AE
:103CD000012E00D008390C4B69431868C00001F070
:103CE00097FC0722216802408B895203DB04DB0C1E
:103CF00013438B81226803049089DB0C400B400343
:103D000018439081F8BDC04604000020F7B50600B6
:103D1000019308AB1F780D001400FFF73BFF300044
:103D2000FFF76AFFC022240592031440BA070C274C
:103D300017433C43C0270722BF022D0433683D4090
:103D400025431D60019B316813401A0080239B02AC
:103D500013434B60F7BD0020704770B50F26CB1D95
:103D6000013902003240D5B22C0000093034092A52
:103D700000DD07341C70013B8B42F2D170BD0000A6
:103D800010B50C000B4B1868FFF7E7FF21000A4B3A
:103D900008311868FFF7E1FF2100084B103118685F
:103DA000FFF7DBFF2100064B18311868FFF7D5FF3E
:103DB000202010BD0CA0800040A0800044A0800006
:103DC00048A0800008B4024B9C46103808BC6047ED
:103DD000813D00003F20704713B56B460268D971E2
:103DE0000733546819000122A04716BD70B50A2692
:103DF0000B7892B06E44023305000B703C22002118
:103E0000300001F0CAFD394801AC06903848242141
:103E10000790062020776846364AA1742281364AE8
:103E2000364BA281FD3AFF3A8018C17768462339A4
:103E30000630C17768460730C17702A8C1770720EE
:103E4000F277032608316944C87703A9CE77102199
:103E50002B366E443170092621851F3169440E705E
:103E60000CA9053E0E7033212380022369440B7098
:103E700006360DA90E7022493536A1863B216E44C7
:103E8000307010A86274E27702703D3269446A446F
:103E90000B70137040210022E37023716371A373D0
:103EA00041336B44218719705A702B7DC039A37040
:103EB000A37263770133DBB2A3776A7D0B200D0019
:103EC00068441543C5773120684403703A23501C79
:103ED0006B441870412302320A436B441A7021006C
:103EE0004222084800F090FD12B070BD1001042479
:103EF000020605240904000001020000080B00006E
:103F0000070500008009002008B4024B9C461038C9
:103F100008BC6047ED3D000070B5027D0B790C00D8
:103F200000259A420BD10B784E78A12B09D1212E76
:103F300005D107221B491C4800F066FD0135280009
:103F400070BD212BFBD1202E22D107221549164806
:103F500000F09CFC9622134BD200196891421DD1AF
:103F6000DB79DB071AD4FA20FFF728FD00210E4881
:103F700000F052FE0125232EE1D1E378A2781B0246
:103F800013430A4A00210848136000F045FED6E7B3
:103F9000222EEFD18A78034BDA71DBE7FFF718FDA9
:103FA000E4E7C0461800002080090020140000202B
:103FB00008B4024B9C46103808BC6047193F00000B
:103FC00010B5417D006A013100F098FB034B1B687E
:103FD00001335A1E9341181810BDC046200000201E
:103FE00010B5417D006A023100F09EFB10BD10B596
:103FF000417D006A023100F065FB10BD70B50D0017
:10400000417D0400130002312A00006A00F052FCD6
:10401000002801D10123636070BD000010B5054C7C
:1040200023685A1C04D103685B6998470300206029
:10403000180010BD20000020074A0300106810B5CA
:10404000411C03D001235B42136010BD597D186AE7
:10405000013100F0DFFBF8E720000020002070476E
:1040600070470000FA239B0010B583600F4B0022BD
:10407000C3820300283383610D4B04004260C26198
:104080001800403323610830631D21622060DA7715
:104090008323A362813BE3628033236301F056FAFA
:1040A0002100103101F023FA200010BD03020000AE
:1040B00008620000022110B5094B1A68437D5B01BC
:1040C000D318FF339C7A21439972437D0133DBB2CD
:1040D0005B01D3180122FF33997A0A439A7210BD0B
:1040E000380E00207047000010B502490248FFF763
:1040F000B9FF10BD8009002024090020704710B5C9
:10410000040001F06FFA200010BD0000F0B5822914
:1041100019D1C3B2294D5A01AA189169284C8001BE
:104120000C40C0218905214391612649083340187C
:104130007021506128685B011A5C8A4311003022AB
:104140000A431A54F0BD0029FCD1C026C1B21B4C51
:104150004B01E3189A681A4DB6052A4032439A601B
:10416000194A800182185A600A0007272468083219
:104170005201115DB9430F000121394311559F6967
:1041800010493D4040182E439E6158617020115DDA
:104190008143080010210143115599680B48A2186A
:1041A000084080214903014399609968890B89037C
:1041B0009960402311790B431371C3E7380E002037
:1041C000FFFFFF8FAC0900206C0B0020FF3F00F0C9
:1041D000EFF3108303600123436072B670470368F6
:1041E000002B02D162B6BFF36F8F704773B5836D3A
:1041F0000400002B1BD10600A83635786846FFF76F
:10420000E7FF019BEDB2013B02D33578EDB2FAE74F
:1042100068460193FFF7E3FF002D01D1002076BD32
:104220002300A4331868A0342368C01AF7E768464F
:10423000FFF7CEFF22000025019BF432013B02D3A1
:104240001578EDB2FAE768460193FFF7C8FF002D35
:10425000E4D02300F0331868EC34E5E710B5436D83
:104260004468DBB25A01A218916809480833084033
:10427000802149030143916091685B01890B8903A7
:1042800091602268D318402219790A431A7110BD2F
:10429000FF3F00F0F7B5436D4268DBB21900040040
:1042A0000831106849014118C979C90711D55B0166
:1042B000D21893689B049B0C0CD12000FFF7CEFF13
:1042C00063681A68636DDBB208335B01D3187F2221
:1042D000DA71F7BDE16D002923D12100A4310B6013
:1042E00023000125AC33E56568465360FFF770FF96
:1042F000260020002100019BA836013BF430F53157
:104300005A1C33D0357002785F1ED2B20A700A7818
:10431000002A04D120000193FFF7A0FFE8E73B004B
:10432000EEE72100F0310B600023E36523006033EA
:1043300053606846FFF74CFF01252600200021004E
:10434000019BF436013BA830F5315A1C0ED0357074
:1043500002785F1ED2B20A700A78002A04D12000C7
:104360000193FFF77BFFE8E73B00EEE76846019328
:10437000FFF735FFA4E737B56B46DC1D00230D00C2
:10438000237001F0E3F8210001F06EF82B68181893
:10439000286020783EBD00002023F7B5474A05007D
:1043A000D1690F200B43D361012245490B78134398
:1043B0000B70444B19788143197006211C782143F6
:1043C000197041490C7822430A701A7802401A7019
:1043D000602219780A431A703C4B3D4A5A805F7834
:1043E000FF09FCD13B48FFF715F801233A4C3B4E3F
:1043F0002268300011780B4313708022390052007C
:1044000001F0CBFA22689378DB07FCD456621F26B2
:10441000334B1B68590B980C9B01314030405B0FAC
:10442000B14200D105211F2800D10238072B00D14D
:10443000043B31408901178D01912A4930400F40DA
:10444000019939431185118D0700B14308003843A4
:104450001085118D1803244B7F260B4003430C203D
:1044600013850823D17881430B430321D37022683D
:10447000D3788B4301390B43D370226813783340D0
:104480001370042322681678334313702268C12402
:104490001389A40083431548138103591B021B0A87
:1044A00003518023036013781148194301231170CD
:1044B0002B700021FFF716FEF7BDC0460004004038
:1044C000584400413C44004159440041000C004024
:1044D00006400000294E0000380E00203C0E00204F
:1044E000246080003FF8FFFFFF8FFFFF00E100E046
:1044F000240900200078002810D00121084B1B68F7
:104500001A898A431A810822198B0A431A830422C2
:10451000198B0A431A830022024B1A607047C04667
:10452000380E0020300E002010B50F4A93699B0B07
:104530009B03936113680222FF331A729879823ABF
:1045400002439A711A7A9207FCD57F24074A2140C8
:10455000937A0800A3431900802301439172917A52
:104560005B420B43937210BD380E00200050004197
:1045700010B50C0000F0EAFF210000F0A8FF0028B1
:1045800004D1034A93699B0B9B03936110BDC04602
:10459000380E0020F8B50D00832A19D1CBB23B4C60
:1045A0005A01A21891693A48AD010840C021890515
:1045B00001439161374920686D18702108335561B6
:1045C0005B011A5C8A43110040220A431A54F8BD69
:1045D000022A55D1304A8B009858002802D003682F
:1045E0005B699847F82000F0F9FF0400274E2B4B39
:1045F0004660036040220021083001F0CEF922001D
:104600000023A032A3646565E3642365A365E365C5
:104610005360D3641372136013654C321372537278
:10462000FF222B001340590171188868184F083376
:104630000740C020800538438860306807265B014A
:10464000195CAD00B1430E0003213143195423001E
:10465000616D606811404901411860334B60616DC4
:1046600063680A401B6852019B180122FF33997A44
:1046700020000A439A72FFF7F1FD074B5C51A6E751
:1046800011002800FFF742FDA1E7C046380E0020C8
:10469000FFFFFF8FAC09002084090020606200004A
:1046A00070B505000124064BA200D258002A06D09E
:1046B000210028000134FFF76DFF0A2CF3D170BDF3
:1046C000580900200B4BCAB20B488901C918530185
:1046D000C318596199690832890B89039961036884
:1046E00052019A180223D3715179823B0B435371C3
:1046F0007047C046AC090020380E0020084B8A00E5
:10470000D05810B5002803D003689B68984710BDA7
:10471000C9B2044B4901591888688004800CF6E737
:1047200084090020380E002010B50C00FFF7E6FFCA
:1047300000280CD0064BE4B21B68083464011C1935
:10474000802362795B42134363710223E37110BDDE
:10475000380E0020F0B51C002A4B85B01B680700FE
:104760000D000292002B4AD0274B8A00D058002817
:1047700008D0036822005B68029998470400200073
:1047800005B0F0BD3800FFF7B9FF844204D9290015
:104790003800FFF7B3FF04000121EBB21B4E039377
:1047A0005B010193F21893689B0B9B039360019A42
:1047B000336802989B18FF335A7A0A435A72144B93
:1047C000A901C918220001F0DFF8002CD7D0290078
:1047D0003800FFF793FF0028D1D14021039B3268B6
:1047E00008335B01D3181879014319710121D9717C
:1047F000019BD318FF339A7A0A439A72BFE70124C8
:104800006442BCE7300E002084090020380E0020EE
:104810006C0B002013B56B46DC1D22000123FFF753
:1048200099FF012801D1207816BD01204042FBE705
:1048300070B5CBB2124A13485C018901891802197C
:1048400051609168104D08330D4080214903294380
:10485000402591609168890B8903916001685A0134
:104860008A1816793543157195796D06FCD55B016B
:10487000C918CB79DB07FCD500198068C0B270BDC0
:104880006C0B0020380E0020FF3F00F070B50D00CB
:1048900000211400FFF7CCFFA04200D92000002324
:1048A0000349A34203D0CA5CEA540133F9E770BD5F
:1048B0006C0B0020F0B51E003A4B85B01B680F0052
:1048C0000192002B35D08023DB019E4231D8002598
:1048D000354B8A01D3180293002E2CD0334B1B6822
:1048E0000393FF233B401C0000930834039B6401A7
:1048F0001C19A379DB0921D02D4B2E49186800F033
:1049000087FE2D4B1721584300F082FE2B4BE27996
:10491000920713D4DA5D002A01D10138F7D20122BF
:10492000DA55009B5A01214B9B189A69920B92030E
:104930009A6101256D42280005B0F0BD00221F4B91
:104940003400DA553F2E09D9009B40245A01174BF9
:104950009B188022996912060A439A6122000199E4
:10496000029801F011F8009BA1045A010F4B890C29
:104970009B18029A2D195A619A69361B920B920361
:104980000A439A61009B039A08335B01D318022201
:10499000DA715979823A0A435A71019B1B190193C2
:1049A0009AE7C046300E0020AC090020380E0020E7
:1049B0000400002040420F0070110100A1090020F6
:1049C00070B50D001C000D4BAE01F6181100300043
:1049D000220000F0D9FFEDB209496D014D196E6159
:1049E000AB69084A20001340AB61AB69A2049B0B82
:1049F000920C9B031343AB6170BDC046AC09002011
:104A0000380E0020FF3F00F0F7B5104B01901B78E7
:104A10000F001500002B0CD10D4B16001C78002C3C
:104A200009D00C4E0C4834882018641900F0ACFFF3
:104A300034802800FEBD002EFBD03A19330000213F
:104A40000198FFF7BDFF2418361AF4E72C0D00205B
:104A50002D0E00202E0E00202D0D0020F8B50F0089
:104A600016000024012A26D9100000F079FF050065
:104A7000380001F05FF80323022201304000287063
:104A80006B7096420DD9397800290AD0531CDBB2DD
:104A90000137A9549E4203D00232EC54D2B2F0E75F
:104AA000320029000548FFF7AFFF441EA041C4B201
:104AB000280000F05FFF2000F8BDC04680090020FC
:104AC000F0B50024012685B0184B0F0069461E7012
:104AD00005000094FFF74FFC154B01A90B806A3BC2
:104AE000FF3BCB715A330B72009B8C7109334B80A7
:104AF0000E4B4E7108711C703A00092F0FD00D4FEC
:104B000009223E700C4E280000943480FFF77CFF91
:104B100069462800FFF72FFC328808493C702800BE
:104B2000FFF772FF012005B0F0BDC0462C0D00203C
:104B3000090200002D0E00202E0E00202D0D002059
:104B400070B5CE7892B005000C00022E0BD18B7997
:104B5000C9792C4809021943FFF7B2FF411E884169
:104B6000C0B212B070BD00F0F1FC210000F090FC6A
:104B7000002803D0C117081AC00FF2E7012E0ED18A
:104B8000E279A37912021A431F49112A13D8D2B22B
:104B9000002A10D02800FFF737FF0120E1E7032E9D
:104BA000DFD1A378002B08D1E279A37912021A434E
:104BB0001649032AEBD90A78ECE7022B08D1E279EF
:104BC000A379120212491A432800FFF747FFC8E7EA
:104BD000012B05D1E279A37912021A430D49F3E7BB
:104BE000032BBED14122010001A800F0D6FE00F047
:104BF000ADFC01A900F05CFCE279A37912021A4332
:104C000001A9E1E7800900209C6200008C6200009D
:104C10007C62000090620000CBB204495B01C918BD
:104C20008B699B0B9B038B617047C046380E00203D
:104C300037B5050048780C000B2810D800F0DEFCD2
:104C4000061B0F2B0F404561494C5A5D097801AA9C
:104C5000002906D1022311802800FFF7B1FE0120B0
:104C60003EBD00231380284B1B78012B00D113700D
:104C700002230021F0E78A780023012A03D101AA48
:104C80001380224BF0E7204A1370214A93699B0B53
:104C90009B039361E3E78C78012C06D100211B4B29
:104CA00001AA1C7011702300D6E70120002CD7D177
:104CB000154B174A187093699B0B9B039361CFE7C1
:104CC00089782800FFF730FCC9E72800FFF738FF94
:104CD000C6E701230F4ACCE70B780020DB06BFD1E3
:104CE0002800FFF7DDFCA2780A4B0B481A60FFF79B
:104CF000E1F9CAE70123094ABBE78A78074B1A6042
:104D0000C3E70020ACE7C046A0090020A8090020A6
:104D1000380E0020300E002024090020340E002020
:104D20003A4BF7B51E780500002E5FD1384C23684A
:104D30009A8B12070DD5082231009A833000FFF7B5
:104D4000E5F910222368FF33997A0A439A72314BAE
:104D50001E6023689A8B520701D504229A83FF3381
:104D60001A7A920603D52022597A0A435A721A7A7D
:104D7000D20623D569460800274AC0CAC0C0A26827
:104D8000920B9203A2604022587902435A71602329
:104D90000A7828001A422AD1FFF74AFF2368FF3316
:104DA000002827D08022997952420A439A711A7AB0
:104DB000520603D54022597A0A435A727F260125AA
:104DC0002368FF331E722F00236808377F01DB1929
:104DD000DB79002B07D0114BAA00D05800280DD04A
:104DE00003681B6898470135082DECD1F7BDFFF724
:104DF000BFFBD3E720210A4A9171D8E7290009486F
:104E0000FFF72EF92368DF19FE71ECE72D0E002065
:104E1000380E0020300E00206C0B0020840900208A
:104E2000FF5000412409002010B50248FFF778FF29
:104E300010BDC0468009002080235B000380002352
:104E4000436007330372704783000148C0187047FE
:104E500058090020836C402B09D03F22036CC154B9
:104E6000036C013313400364836C01338364704724
:104E7000F7B505006846FFF7ABF900264022019B15
:104E8000013B02D32E6D961BFAE768460193FFF7AC
:104E9000A6F9AB6D6846002B4FD1FFF799F92900B1
:104EA000019BA831013B5A1C0CD00C785A1EE4B26D
:104EB000002C05D168460193FFF791F92000FEBD53
:104EC0001300F0E7684601930024FFF788F92A00F1
:104ED0002900A0321368A431B4420ED00868984269
:104EE0000BD92800591CEB18116060331978083071
:104EF000C9B2FFF7AFFF0134E9E709689942DDD194
:104F0000002313600133AB656846FFF761F92F009A
:104F10002A000021019BA837013BF532581CC9D05B
:104F2000397010785E1E002805D01170280001939A
:104F3000FFF794F9EBE73300F0E7FFF749F92900B1
:104F4000019BF431013B5A1C06D00C785A1EE4B286
:104F5000002CAFD01300F6E7684601930024FFF75A
:104F60003EF92A002900EC321368F031B44202D035
:104F7000086898421DD8096899429FD10023684665
:104F80001360AB65FFF724F92F002A000021019B75
:104F9000F437013BF532581C00D18BE7397010789B
:104FA0005E1E002811D0117028000193FFF756F9FA
:104FB000EAE72800591CEB181160AC331978083067
:104FC000C9B2FFF747FF0134CBE73300E3E710B581
:104FD0000400FFF74DFF206D10BD10B50400FFF772
:104FE00047FF236D002B03D0E36CE418207A10BD3B
:104FF00001204042FBE7F7B517000E000400FFF761
:1050000037FF6846FFF7E4F83F2200259446019BEE
:10501000013B5A1C19D0BD4215D2226D002A12D074
:105020000121226D4942002A0AD06046E26CA21892
:10503000117AE26C01320240E264226D013A22658B
:1050400071550135E7E7013BE3E768460193FFF758
:10505000C6F82800FEBD0000014B024A1A607047E6
:10506000380E0020005000410120704710B5036841
:10507000014A1B6A984710BD13040000C06D7047B9
:10508000A83003684020C01A7047C36D002B03D0BE
:10509000836DC018007D704701204042FBE710B5CA
:1050A00004000069FEF70AFD002322006365A032B8
:1050B000A365E365A83413605360236010BD02004C
:1050C00010B5A8321368002BFCD10069FEF70DFD66
:1050D00010BDF02001403039484248417047F0236C
:1050E0001B011940802306209B0099420AD00133FE
:1050F000FF330130994205D0802302385B0099428A
:1051000000D0002070470F2001400020012903D06B
:105110000239481E8141481C704700000300F0B569
:10512000182685B00391AC330400187833000821A9
:105130004343334D1700EB185956FEF7DFFB2300AE
:10514000AD331878330008214343EB185956FEF766
:10515000D5FB2300AF331B78022B0AD12300C033C9
:105160001878FF2805D008214643AE197156FEF77E
:10517000C5FB2600B0363078FF2819D00121FEF794
:105180002DFB1822210033781E485A43AB56B43108
:10519000DB01181808601C49AD185B1821000122BA
:1051A000B8310B6069688A402100BC310A601A601E
:1051B0000122039B11002069FEF772FD39002000D7
:1051C000FFF78DFF390005002000FFF79CFF390035
:1051D00006002000FFF77DFF3300009029002069C2
:1051E0000122FEF73BFC2300AE331A785978206980
:1051F000FEF751FC2069FEF76EFC05B0F0BDC0461D
:10520000A85E0000184400411444004110B540223B
:105210000021040000F0C1FB00232000236463642C
:10522000A36410BDF7B51D0008AB1B780400009304
:1052300009AB1B781600019300234360FA239B00FF
:1052400083600E4B0F00083303601430FFF7DEFF5E
:1052500020006030FFF7DAFF6A4623001278AC3393
:1052600027619A706A4612791E70DA7022005D70AA
:10527000FF23B032200013701374FEBDB062000033
:1052800037B5EFF3108300930123019372B63F24E7
:10529000019B013B5A1C0FD0826C5D1E402A09D035
:1052A000026C8154026C013222400264826C013231
:1052B0008264EEE72B00EDE768460193FEF78FFF6F
:1052C00037BD13B5EFF3108300930123019372B63A
:1052D000019B5A1E0192002B14D0836C002B0ED020
:1052E0003F22436CC45C436C013313404364836CC2
:1052F000013B83646846FEF772FF200016BD01245F
:105300006442F7E76846FEF76AFFF6E710B5040067
:105310000069FEF703FC002805D02069FEF70EFCAB
:105320002069FEF700FC2069FEF7E8FB002818D092
:105330002069FEF703FC010020001430FFF7A0FFF6
:105340002300B0331B78FF2B0BD04023E26D9B1A58
:10535000092B06DC23002200B433BC321B68126820
:105360001A602069FEF7E5FB00280CD02300A83363
:105370001B68002B13D020006030FFF7A2FFC1B2E2
:105380002069FEF7DFFB2069FEF7BDFB002805D092
:105390002069FEF7BCFB2069FEF7ACFB10BD20695D
:1053A000FEF7DCFBEFE70000F8B5040000690D0034
:1053B0002600FEF7BEFBA836002802D03368002B7B
:1053C00031D00F273368402B23D1EFF31083012214
:1053D00013420FD1164B5B68DB05DB0DF2D0103B9F
:1053E0005BB2002B0FDA3B40083B9B08114A9B0045
:1053F0009B181B682069FEF79CFB0028E2D0200068
:10540000FFF784FFDEE79B08C0330B4A9B009B58E5
:10541000F0E7200029006030FFF732FF2069FEF737
:1054200099FB0120F8BD29002069FEF78BFBF8E706
:1054300000ED00E01CED00E000E100E010B504002C
:105440001430FFF73EFF2300B0331B78FF2B0AD048
:105450004023E26D9B1A0A2B05DD2300BC34B833D0
:105460001B6822681A6010BD70B50E0000254468E4
:10547000002C0BD0236831005B682000984700287F
:1054800002DB2D18E468F3E701256D42280070BDAA
:1054900070B50D004468002C08D0236829009B6873
:1054A00020009847002802D1E468F4E7200070BD8E
:1054B00070B50D004468002C07D023682900200037
:1054C000DB689847E4682D18F5E72C7070BD70B55F
:1054D0000D004468002C08D0236829001B682000B8
:1054E0009847002802D1E468F4E7200070BDF8B5C1
:1054F00042788B790D00017A9B18040000208B42C2
:1055000022DC6368834219D16560002623786A71C2
:10551000EA792B719B182370AB79B34213D9AB682E
:10552000B7006078DF19FFF78FFC3B680136036036
:105530006378F6B201336370EEE70B00D968002997
:10554000FBD1DD60E1E70120F8BD000070B5012668
:10555000054D064C2B68334203D12000FFF76CFC4D
:105560002E60200070BDC0463C0F0020400F002080
:10557000F7B506000D000C008B180193019B671B0B
:105580009C4207D0336821781B683000984701346B
:105590000028F3D13800FEBD7047000010B5FEF7BB
:1055A0004DF800F0B9F9FFF7F7FF0120FDF76EFFA6
:1055B000084C2000FEF7F0FE2000FEF79BFFFDF7F1
:1055C000A3FCFDF779FB044B002BFAD000E000BFF1
:1055D000F7E7C046800900200000000010B500F089
:1055E000BFF910BD10B500F0C5F910BD0B0010B526
:1055F0000100180000F082F910BD000002B47146ED
:1056000049084900095C49008E4402BC7047C04605
:10561000002243088B4274D303098B425FD3030AF1
:105620008B4244D3030B8B4228D3030C8B420DD304
:10563000FF22090212BA030C8B4202D31212090292
:1056400065D0030B8B4219D300E0090AC30B8B42D0
:1056500001D3CB03C01A5241830B8B4201D38B037E
:10566000C01A5241430B8B4201D34B03C01A524123
:10567000030B8B4201D30B03C01A5241C30A8B4266
:1056800001D3CB02C01A5241830A8B4201D38B0251
:10569000C01A5241430A8B4201D34B02C01A5241F5
:1056A000030A8B4201D30B02C01A5241CDD2C30967
:1056B0008B4201D3CB01C01A524183098B4201D3E3
:1056C0008B01C01A524143098B4201D34B01C01ACE
:1056D000524103098B4201D30B01C01A5241C30846
:1056E0008B4201D3CB00C01A524183088B4201D3B5
:1056F0008B00C01A524143088B4201D34B00C01AA1
:105700005241411A00D20146524110467047FFE70C
:1057100001B5002000F0F0F802BDC0460029F7D026
:1057200076E7704703460B437FD4002243088B4241
:1057300074D303098B425FD3030A8B4244D3030B18
:105740008B4228D3030C8B420DD3FF22090212BADD
:10575000030C8B4202D31212090265D0030B8B4259
:1057600019D300E0090AC30B8B4201D3CB03C01A43
:105770005241830B8B4201D38B03C01A5241430B1E
:105780008B4201D34B03C01A5241030B8B4201D30E
:105790000B03C01A5241C30A8B4201D3CB02C01A79
:1057A0005241830A8B4201D38B02C01A5241430AF1
:1057B0008B4201D34B02C01A5241030A8B4201D3E0
:1057C0000B02C01A5241CDD2C3098B4201D3CB0187
:1057D000C01A524183098B4201D38B01C01A524136
:1057E00043098B4201D34B01C01A524103098B423A
:1057F00001D30B01C01A5241C3088B4201D3CB0025
:10580000C01A524183088B4201D38B00C01A524107
:1058100043088B4201D34B00C01A5241411A00D2B7
:1058200001465241104670475DE0CA0F00D0494220
:10583000031000D34042534000229C4603098B4290
:105840002DD3030A8B4212D3FC22890112BA030A18
:105850008B420CD3890192118B4208D3890192119A
:105860008B4204D389013AD0921100E08909C3091F
:105870008B4201D3CB01C01A524183098B4201D321
:105880008B01C01A524143098B4201D34B01C01A0C
:10589000524103098B4201D30B01C01A5241C30884
:1058A0008B4201D3CB00C01A524183088B4201D3F3
:1058B0008B00C01A5241D9D243088B4201D34B000E
:1058C000C01A5241411A00D20146634652415B1050
:1058D000104601D34042002B00D549427047634631
:1058E0005B1000D3404201B5002000F005F802BD76
:1058F0000029F8D016E770477047C04610B504007D
:1059000004481300002804D00A000220210000E00F
:1059100000BF10BD0000000070B500260C4D0D4CFE
:10592000641BA410A64209D1002600F049F90A4DD3
:105930000A4C641BA410A64205D170BDB300EB58FD
:1059400098470136EEE7B300EB5898470136F2E787
:10595000880000208800002088000020A00000208F
:1059600010B5034B0100186800F06AF810BDC0467E
:105970002400002010B5034B0100186800F016F851
:1059800010BDC04624000020002310B59A4200D16B
:1059900010BDCC5CC4540133F8E7030012189342E5
:1059A00000D1704719700133F9E7000070B50500A8
:1059B000002910D00C1F2368002B00DAE4182800FF
:1059C00000F0BFF81D4A1368002B05D16360146016
:1059D000280000F0B7F870BDA34209D9216860180B
:1059E0008342F3D118685B6841182160EEE7130029
:1059F0005A68002A01D0A242F9D919685818A04261
:105A00000BD120680918581819608242E0D110683B
:105A10005268411819605A60DAE7A04202D90C2393
:105A20002B60D5E721686018824203D11068526864
:105A30004118216062605C60CAE7C0464C0F0020DC
:105A4000032370B5CD1C9D43083506000C2D1ED2D6
:105A50000C25A9421DD8300000F073F8254A1468BF
:105A60002100002919D1244C2368002B03D13000D8
:105A700000F04EF820602900300000F049F8431C87
:105A80002BD10C233000336000F05CF803E0002DD4
:105A9000DFDA0C233360002070BD0B685B1B19D468
:105AA0000B2B03D90B60CC18256003E04B688C42AC
:105AB0000DD11360300000F045F8200007220B30B4
:105AC000231D9043C31AE7D05A42E250E4E76360D3
:105AD0000C00EFE70C004968C3E70323C41C9C4398
:105AE000A042E1D0211A300000F012F8431CDBD1B3
:105AF000C7E7C0464C0F0020500F002010B5034BE5
:105B00000A000100186800F01EF810BD24000020F3
:105B1000002370B5064C05000800236000F042F831
:105B2000431C03D12368002B00D02B6070BDC046FE
:105B3000580F00200023C25C0133002AFBD1581EFD
:105B4000704770477047F8B507000D001600002930
:105B500005D11100FFF774FF04002000F8BD002AF2
:105B600003D1FFF723FF3400F7E700F012F82C0011
:105B7000B042F2D231003800FFF762FF041EECD0D1
:105B800029003200FFF700FF29003800FFF70EFF61
:105B9000E3E70B1F1B68181F002B01DA0B58C01816
:105BA00070470000044A1368002B00D1034B1818FB
:105BB000106018007047C046540F00205C0F002092
:105BC000F8B5C046F8BC08BC9E467047F8B5C0465C
:105BD000F8BC08BC9E4670470000000000000000B2
:105BE000FD2000002D21000069210000712100002E
:105BF0000000000000000000352600000127000022
:105C00007921000081210000000000000000000058
:105C10000D260000CD260000892100009121000002
:105C2000000000000000000029250000AF27000050
:105C300099210000A12100000000000000000000E8
:105C4000A9210000B1210000B9210000C1210000FC
:105C50000000000000000000C9210000D121000068
:105C6000D9210000E1210000000000000000000038
:105C7000B5220000A12A000015220000000000004B
:105C800000000000412200005122000055220000C7
:105C90005D22000000000000000000001D22000046
:105CA0002D2200003122000039220000496C6C7561
:105CB0006D696E6174696F6E626F6172642F707767
:105CC0006D00496C6C756D696E6174696F6E626FA1
:105CD0006172642F7472696767657200496C6C75D4
:105CE0006D696E6174696F6E626F6172642F636F4C
:105CF0006E666967003966306539386264613635C9
:105D000039383139383664646635336166613761F4
:105D10003430653439003131616264373331633294
:105D20003539333332363163643631383362643176
:105D300032643632393500726F7373657269616C23
:105D40005F6D7367732F4C6F670030616435316628
:105D5000383866633434383932663863313036382F
:105D60003430373736343630303500726F73736500
:105D70007269616C5F6D7367732F546F70696349EB
:105D80006E666F00726F7373657269616C5F6D73BD
:105D900067732F52657175657374506172616D0020
:105DA0004D6573736167652066726F6D20646576FB
:105DB0006963652064726F707065643A206D657305
:105DC00073616765206C6172676572207468616ECB
:105DD000206275666665722E0038623934633162FE
:105DE000353364623631666236616564343036302C
:105DF000323861643633333261007374645F6D73BB
:105E000067732F426F6F6C006364373136366337C8
:105E100034633535326333313166626363326665CC
:105E20003561376263323839007374645F6D73674C
:105E3000732F54696D650037633831363432323927
:105E400065376432633137656239356539323331EC
:105E500036313766646565007374645F6D736773AC
:105E60002F55496E74380001020300000000000045
:105E70000000000039300000AD3000004B30000061
:105E80005530000019300000B9300000FD3000002E
:105E9000393200003931000037300000373000005F
:105EA000E93100003B300000000000001600000057
:105EB000080000001C000000FF00000400040600B1
:105EC0000000000017000000080000001C00000097
:105ED000FF00010401040700000000000A000000A8
:105EE000080000001C000000120000010001FF007B
:105EF000000000000B000000080000001C00000073
:105F0000130001010101FF00010000000A00000070
:105F1000080000001C000000FF00000500050A004A
:105F2000010000000B000000080000001C00000041
:105F3000FF00010501050B00000000001400000037
:105F4000080000002C000000FF0002000200040016
:105F50000000000015000000080000002C000000F8
:105F6000FF00030003000500000000001000000017
:105F7000020000001C000000FF0000020002000000
:105F800000000000110000000200000004000000FA
:105F9000FF00FFFFFFFF01000000000013000000F2
:105FA000020000001C000000FF0001030103FF00CD
:105FB00000000000080000000300000004000000D2
:105FC0001000FFFFFFFF10000000000009000000AC
:105FD00003000000040000001100FFFFFFFFFF00AE
:105FE0000100000017000000030000000400000092
:105FF000FF00FFFFFFFFFF00010000001600000090
:106000000300000004000000FF00FFFFFFFFFF008F
:106010000000000002000000010000000600000077
:106020000000FFFFFFFFFF00010000000200000072
:1060300001000000040000000A00FFFFFFFF020053
:106040000100000003000000010000000400000047
:106050000B00FFFFFFFF0300000000000400000032
:10606000010000001C000000040000000000FF0010
:106070000000000005000000010000001C000000FE
:10608000050001000100FF00000000000600000004
:1060900001000000040000000600FFFFFFFFFF00FA
:1060A00000000000070000000100000004000000E4
:1060B0000700FFFFFFFFFF000000000018000000C6
:1060C0000600000000000000FF00FFFFFFFFFF00D0
:1060D00000000000190000000600000000000000A1
:1060E000FF00FFFFFFFFFF000000000012000000A4
:1060F0000800000004000000FF00FFFFFFFFFF009A
:106100000000000003000000080000000400000080
:10611000FF00FFFFFFFFFF00000000000C00000079
:106120000300000000000000FF00FFFFFFFFFF0072
:10613000000000000D00000003000000000000004F
:10614000FF00FFFFFFFFFF00000000000E00000047
:106150000800000000000000FF00FFFFFFFFFF003D
:10616000000000000F00000003000000000000001D
:10617000FF00FFFFFFFFFF00000000001B0000000A
:106180000800000000000000FF00FFFFFFFFFF000D
:10619000000000001C0000000800000000000000DB
:1061A000FF00FFFFFFFFFF000100000008000000EC
:1061B0000800000000000000FF00FFFFFFFFFF00DD
:1061C00001000000090000000100000018000000AC
